:020000040000FA
:10000000F8050010D9000000E1000000E300000046
:1000100000000000000000000000000000000000E0
:10002000000000000000000000000000E5000000EB
:100030000000000000000000E7000000E9000000F0
:10004000EB000000EB000000EB000000EB00000004
:10005000EB000000EB000000EB000000EB000000F4
:10006000EB000000EB000000EB000000EB000000E4
:10007000EB000000EB000000EB000000EB000000D4
:10008000E50D0000FD0D0000150E0000590E0000EA
:10009000EB000000D90F0000EB000000EB000000B7
:1000A000EB000000EB000000EB000000EB000000A4
:1000B000EB000000EB000000EB000000EB00000094
:1000C0000448854600F012FB00F02AF8004800477B
:1000D000ED140000F805001004488047044800476C
:1000E000FEE7FEE7FEE7FEE7FEE7FEE75D0D000048
:1000F000C100000030B50B4601460020202201243B
:1001000009E00D46D5409D4205D31D469540491B4B
:100110002546954040191546521E002DF1DC30BD94
:1001200070B5054C054D03E0206800198047241D7B
:10013000AC42F9D170BD0000401900004419000024
:10014000F8B502464A40D40F42004B0052085B0803
:100150009A4202D20246084611464A0023D0C30DF5
:100160004A00DDB2120EAD1A202D35DA4902012601
:10017000490AF6058A19002C00D0524220214F1B53
:100180001146B9402A411018C20D9A4221D0002CC4
:1001900017D0012D08DCDA05801AD20F8019D2079A
:1001A000DBB200F0CCF9F8BDDA05801A012340007B
:1001B0001B06C01880185A428018CA0F1043490005
:1001C00007E04908C2071143DA05801A8019400880
:1001D000801800F0ACF9F8BD61000122511A001B33
:1001E000F7E70122D2075140AAE70122D207504087
:1001F000A6E7024670B54A40D30FDB0740002DD07A
:100200004A002AD0010E140E000212020919400AF7
:10021000520A8418E50104465443000A120A2E04C7
:100220005043A4194219200CC543AA18120C0125E9
:10023000AD03521C521912047F39240400D0521C01
:10024000104301D44000491EC2B20C06C009201858
:10025000401C4008802A02D003E0002070BD400806
:100260004000002900DA0020184370BD70B5024636
:100270004A40D50F40004A00ED07400852080028C8
:1002800014D0002A12D0C40DD30D41020120C005A4
:100290005202490A520AE41A091812187D3491428E
:1002A00001D3641C00E04900002C01DA002070BD7D
:1002B0000023914201D3891A0343400849000028D2
:1002C000F7D100290AD0914202D10121C90705E0E6
:1002D000914201D2012101E00121C943E005C0188A
:1002E000401900F024F970BD10B500229623114684
:1002F00000F025F910BD00BFFEE77047FFFFFFFFCC
:10030000F0B51FB488B00B990998002448400999AA
:10031000C00F490049080991C0070B990090490096
:1003200049080B9109990898A64608431CD00B99D7
:100330000A98084318D0099801244000420D48004B
:10034000410D099824050003000B204309900B98E8
:100350000003000B20430B9050181C49401800224A
:1003600001901446104605E0002001460DB0F0BD96
:10037000032801DA034600E003239C46C11A0AAEB3
:100380000AE05F0008ADED5B4F00F75B7D4300279F
:10039000AA187C41491C5B1E6145F2DD410004AB9B
:1003A0005A522104120C0A43240C401C0828DFDB9B
:1003B000019802900099704601910090059B049A63
:1003C0000799069800F001F9D0E700000DFCFFFF47
:1003D000C217C10F504010B54018CA07962300211C
:1003E00000F0ADF810BD00000EB5C217C10F5040AF
:1003F000CA0740180021054B0293019200910A465A
:100400000B4600F0E2F803B000BD0000330400002A
:100410000EB505490291002100910A460B46019153
:1004200000F0D3F803B000BD3304000070B5CD0F69
:100430004A0009030123090B1B0519430B4BED0768
:100440000024520D9A4201DA002070BD074B34336C
:100450009A4203DC9A1A00F059F802E00449511854
:1004600088402C43F1D0404270BD0000FF030000E3
:10047000CDFBFFFF4A0009030123090B1B051943AC
:10048000094B10B5520D9A4201DA002010BD064BFF
:1004900034339A4203DC9A1A00F038F810BD03494D
:1004A0005118884010BD0000FF030000CDFBFFFF86
:1004B000C20FD207400040080BD0C10D0723DB015B
:1004C000C91840020905400A1143C20840071143F8
:1004D00070470020014670470122D207002800DB48
:1004E000101A002900DB511A8142704710B5202AEA
:1004F00004DB0146203A9140002010BD91402023AA
:100500009C1A0346E3401943904010BD10B5202AC1
:1005100004DB0846203AD040002110BD0B46D340F2
:10052000D0402024A21A91400843194610BD00294A
:1005300004DA401C490001D140084000704770B403
:100540000024050C05D11024000402D1002921D07B
:100550001124050E01D100020834050F01D100015C
:10056000241D850F01D18000A41C002801DB400060
:10057000641C002908D020252E1B0D46F540A14003
:1005800000D001212943084301061B1B000ADB1D83
:1005900002D5002070BC7047DB05181880180029B0
:1005A000F8DA401C4900F5D170BC400840007047A3
:1005B00010B5002B08DA0024401C614192185B4101
:1005C0001A4301D14008400010BDF0B51FB482B0FD
:1005D00005460C0003D0084600F036FE02E000F0AD
:1005E00033FE20300246009021462846FFF77EFF6A
:1005F000049B059A04460F4618431143084314D040
:10060000184610431BD0009840210A1A1846059935
:10061000FFF77CFF05460E46009A05990498FFF700
:1006200065FF084305D0012004E02046394607B0A5
:10063000F0BD0020C11705430E432C4337430099FA
:100640000E986305401A7905E40A00220C43FD0A5E
:100650000A3002D500200146E9E701051019694179
:100660000C9C0D9D00196941FFF7A2FFDFE7000018
:10067000F8B50546480040080C46284304D0600001
:10068000184A400D904201DD2846F8BD154935391C
:10069000884210DC88420BDB290D20030843290324
:1006A000014305D0E00F1049C00741180020F8BDF4
:1006B00000200146F8BD161A4020821B284621461C
:1006C000FFF714FF07460091284621463246FFF700
:1006D0001DFF3A46009BFFF76BFF3246FFF706FF10
:1006E000F8BD0000330400000000F03F064C012577
:1006F000064E05E0E36807CC2B430C3C98471034CA
:10070000B442F7D3FFF7E0FC2019000040190000C5
:10071000FFB591B0129800010E900E991198FFF755
:10072000E9FC0A910E991198FFF7E4FC06460021B6
:100730001498016001211A980160139806600A98C4
:10074000002852DD881E0D903046F10F091849101F
:100750004C1C48E00E9F67431198C01B0F90012569
:100760003EE03846FFF734FE04902846FFF730FE9F
:1007700002900F98FFF72CFE01900299FFF739FDC8
:1007800003900499FFF772FD0590FFF791FE079122
:10079000069001F069F809910890FFF747FE0C9068
:1007A0000C9A7A430F996943501AFFF71DFE4900CE
:1007B000490809910890FFF739FE0B900D98401CED
:1007C000002803D00D990B98884208DA0B980D90F9
:1007D00014990C9808601A980560139804606D1CB1
:1007E000102DBEDB641CB442B4DD15B0F0BD0000BA
:1007F00002469000034B1B58012088408000185887
:10080000704700007018000000B51E4800684021C5
:1008100008431C49086001220821002000F036F836
:1008200001220821002000F05BF8012203210020B2
:1008300000F02CF801220321002000F051F80022E2
:100840000921104600F022F800220121084600F09C
:100850001DF800220221012000F018F80A48806BE0
:10086000C008C000084988630846806B032108431C
:10087000054988630846806B8021084302498863E4
:1008800000BD0000808004404040044030B5002A94
:1008900011D08300114CE3580124E4031B191B6899
:1008A00001248C40234384000C4D2C590125ED0379
:1008B0006419236010E08300084CE3580124E4032A
:1008C0001B191B6801248C40A3438400034D2C5941
:1008D0000125ED036419236030BD0000701800008D
:1008E00030B513468B408400034D2D5901248C40B4
:1008F000A4002B5130BD000070180000C206D20EBB
:1009000001219140014A11607047000000E100E0C0
:1009100070B504460026F6430025012C18D10020AE
:1009200028490860412028490870542048702B202D
:1009300088704520C8703D2008716F2048716E2076
:1009400088710D20C87108211F4800F031FB1AE0A2
:10095000002C18D100201B49086041201A4908705A
:10096000542048702B2088704520C8703D200871A5
:100970006F20487166208871C8710D2008720921A6
:10098000114800F015FB002517E0FF212D31002054
:1009900000F098FC0B48006806280DD90B488078B9
:1009A0002B2808D10948C0784F2804D1074800797E
:1009B0004B2800D1002602E06D1C032DE5DB00BFB3
:1009C000304670BD20000010C00000105C00001018
:1009D00070B504460026F6430025002C1FD131498E
:1009E0000860412030490870542048702B208870DE
:1009F0005720C8704D2008714F20487144208871DD
:100A00004520C8713D2008724120487250208872EC
:100A10000D20C8720C21244800F0CAFA23E0012CF2
:100A200021D100201F49086041201F49087054202F
:100A300048702B2088705720C8704D2008714F20B7
:100A40004871442088714520C8713D2008725320A8
:100A50004872542088724120C8720D2008730D21FD
:100A6000114800F0A5FA002517E0FF212D310020E4
:100A700000F028FC0B48006806280DD90B48807848
:100A80002B2808D10948C0784F2804D1074800799D
:100A90004B2800D1002602E06D1C032DE5DB00BFD2
:100AA000304670BD20000010C00000105C00001037
:100AB000F8B504460026F6430025002700200090E4
:100AC000002C3AD1344908602B203449087000BF0B
:100AD00004E00121314800F06BFA6D1C032DF8DBB6
:100AE0007D21C900002000F0EDFB2B4800680028A4
:100AF0004FD02B48007861284BD12849087000203E
:100B0000254908600121254800F052FA7D21C900DD
:100B1000002000F0D7FB20480068002839D020488A
:100B200000782B2835D11E4840784F2831D11C48F9
:100B300080784B282DD100262BE0012C29D10020D4
:100B400015490860412015490870542048702B2031
:100B500088704520C8704E200871542048714D207F
:100B600088710D20C87108210C4800F021FA7D2100
:100B7000C900002000F0A6FB094880782B2808D186
:100B80000748C0784F2804D1054800794B2800D188
:100B900000263046F8BD000020000010C000001004
:100BA0005C00001010B500245A48406AC005000FD0
:100BB000030000F060FB10090B0D0F11131517193E
:100BC0001B1D1F212325272900241DE0524C1BE05B
:100BD000524C19E0524C17E0524C15E0524C13E0C5
:100BE000524C11E0524C0FE0524C0DE0524C0BE0D5
:100BF000524C09E0524C07E0524C05E0524C03E0E5
:100C0000524C01E0524C00BF00BF4248406AC0064F
:100C1000800E811C2046FFF76DFA04463D484030A7
:100C2000006B8007800F002806D0012808D002281A
:100C300023D0032863D123E04648474908605EE09B
:100C40003448403000688007800F002806D0012813
:100C500008D002280AD003280DD108E03D483E49BB
:100C6000086008E03B483C49086004E000BF002001
:100C70003949086000BF00BF41E0374804603EE0EA
:100C80002448403000688007800F002806D00128E3
:100C900019D002282CD003282FD12AE01D488068C3
:100CA000FF2181310840002803D02A482A490860E2
:100CB00008E018488068C006C00E401C254948431B
:100CC0002549086019E013488068FF2181310840F8
:100CD000002803D01F482049086008E00D488068BC
:100CE000C006C00E401C1B4948431B49086004E075
:100CF00000BF00201849086000BF00BF00BF00BF50
:100D000004484030816B14480068FFF7F3F912493A
:100D1000086010BD0080044020A1070000350C00D1
:100D2000E0C81000C05C1500006A180040771B0086
:100D300080841E00C0912100009F240040AC270049
:100D4000E032290020402C00604D2F0000D43000FC
:100D500040E13300001BB7004000001000201F4995
:100D6000086001204860002048600120486000BF02
:100D70001A484068C007C00F0028F9D0232017493F
:100D8000403988601648806B802188431449886305
:100D900000BF12484038C068C007C00F0028F8D014
:100DA00003200E49086301204863002048630120A6
:100DB000486300BF0948406BC007C00F0028F9D046
:100DC0000120064988630548403000680121090474
:100DD00008430249403108607047000040800440E9
:100DE0000082044004480068C007C00F002802D0F9
:100DF000012001490860704700C0004004480068B5
:100E0000C007C00F002802D00120014908607047C8
:100E1000000001400B480068C007C00F002810D038
:100E20000120084908600848008808490988884264
:100E300002DA01200649087006480068401C05498E
:100E40000860704700400140340000102600001088
:100E50003C000010000000101348006810210840FA
:100E6000002820D010201049086010480068401C5D
:100E70000E4908600E480078002814D00A48C06A5D
:100E80000C49098889000C4A5050084801680948F3
:100E900002880088401C074B18809000074A1150B8
:100EA000002003490870704700800140380000109E
:100EB0003C00001034000010EC000010F0010010A5
:100EC0007FB5044600203449086015200121814087
:100ED000324A116000BF3248406AC008C000304941
:100EE00048620846406A012108432D494862084685
:100EF000806AC008C00088620846806A01210843F1
:100F000027498862274800680121090308432549C9
:100F100008600120886183202349C86021488569D1
:100F2000294622480068FFF7E5F8064601A802AB0B
:100F300003AA214600903046FFF7EAFB0398000A17
:100F4000194948600398C0B20860019800010299ED
:100F50000843154988620320C86007208860084656
:100F6000456900BF10484069602108406028F9D1F8
:100F700001E00D4805680C484069C007C00F002813
:100F8000F7D1152001218140044A803A116000BF49
:100F90000520054948607FBD2000001080E100E089
:100FA00080400440808004400080004040000010E9
:100FB00010B500220BE000BF064B5B6920242340E4
:100FC000002BF9D01346521CC35C024C23608A42AA
:100FD000F1D310BD0080004070B500BF2D4A92686B
:100FE000D0B240104007400F032822D1294A52694D
:100FF000D1B29E220A40002A05D0274A1160254A14
:101000001268D3B270BDCA07D20F002A3FD0214C5C
:101010002468E5B2214C2268541C204E3460204CD8
:10102000A55432461268642A31D100223446226027
:101030002DE0022811D1174C2468E5B2174C226824
:10104000541C164E3460164CA55432461268642A5D
:101050001DD100223446226019E0062807D10E4A2D
:101060001268FF24013422430B4C22600FE0012858
:101070000DD1084A5269D1B220220A40002A03D079
:101080000122084C227002E00022064C227000BFB0
:10109000B8E7000000800040180000102000001099
:1010A0005C0000101C00001010B500220321104647
:1010B000FFF716FC7D21C900002000F003F9012292
:1010C00003210020FFF70CFC10BD000070B50025C7
:1010D000ED43002400203549086041203449087060
:1010E000542048702B2088705720C8704D200871FC
:1010F0004F204871442088714520C8710D20087226
:1011000009212B48FFF754FF00BF49E0FF212D3193
:10111000002000F0D7F82548006806283FD9254868
:1011200080782B2819D12348C0784F2815D1214821
:1011300000794B2811D11F4840793D280DD11D4819
:101140008079412809D11B48C079502805D1194818
:10115000007A0D2801D1002520E0164880782B2840
:101160001CD11448C0784F2818D1124800794B2858
:1011700014D1104840793D2810D10E488079532869
:101180000CD10C48C079542808D10A48007A41286B
:1011900004D10848407A0D2800D1012502E0641CE2
:1011A000032CB3DB00BF284670BD000020000010F8
:1011B000C00000105C00001010B50022082110468D
:1011C000FFF78EFB10BD10B5012208210020FFF7AC
:1011D00087FB10BD70B504460D4629460839A01D91
:1011E00000F00EF806466019203886773112601933
:1011F0002038C17729462046FFF7DAFE70BD00008F
:1012000030B502460B46002017E001130405200C00
:101210004C000C4D2C5B444015782D116C40204641
:1012200001130405200C4C00064D2C5B444015783E
:101230002D072D0F6C402046521C1C465B1E002CB7
:10124000E3D130BD001900002021020C01D0102193
:101250001046020A01D010460839020901D0104692
:10126000091F820801D01046891E420801D0881E3D
:101270007047081A704730B47446641E2578641CA1
:10128000AB4204D3635D5B00E31830BC18471D46D6
:10129000F8E702E008C8121F08C1002AFAD1704717
:1012A000002001E001C1121F002AFBD1704700009D
:1012B00002480088401C0249088070472400001042
:1012C0002600001070B505460C46002D24D10220E2
:1012D000254948607D21C90024480068FEF70AFFBF
:1012E000604380B22049C8607D21C9001F48006862
:1012F000FEF700FF6043000C1B498861FF20086077
:10130000042048610120486000BF17484068C007BA
:10131000C00F0028F9D125E0012D23D10220144966
:1013200048607D21C90011480068FEF7E3FE604374
:1013300080B20F49C8607D21C9000C480068FEF7E3
:10134000D9FE6043000C0A498861FF200860042030
:1013500048610120486000BF05484068C007C00FD1
:101360000028F9D170BD000000C00040400000100E
:1013700000000140002803D10121034A516002E02E
:101380000121024A5160704700C000400000014046
:10139000002803D10121034A516002E00121024AE1
:1013A00051607047004001400080014010B5044684
:1013B0000B46002C10D122480068802108432049A8
:1013C000086000201F4908601F49086004201F4969
:1013D00048610846836132E0012C30D1184800682A
:1013E0002102084316490860012000F027FA184836
:1013F000406B01210843164948630846406B0221AF
:10140000084313494863124840384069FF21C131FD
:1014100088430F494039486108464069C021084364
:101420000B494039486100200A4908600A490860B0
:10143000074840380362581C05494039C86110BD4F
:1014400080800440440000104C00001000C00040A8
:1014500040000140480000105000001070B50446E4
:101460000D46002C1DD11A4800680121490208438D
:101470001749086000201749086017490860174895
:101480004069C008C0001549486108464069032109
:10149000084312494861084685611220FFF72EFA79
:1014A00015E0012C13D10A480068A102084308493D
:1014B00008600B48806A05210843094988620020BA
:1014C00008490860084908601320FFF717FA70BD43
:1014D000808004400000001008000010004001401F
:1014E00000800140040000100C00001086B0FFF7DF
:1014F00059FBFFF789F9E1204002FFF7E1FC7D216C
:10150000C9000120FFF7AAFF7D21C900BC4800687F
:10151000FEF7F0FD0190FEF77BFF06460022B94B77
:10152000FEF7EEFE0446FEF7A5FF014602900020FE
:10153000FFF794FFFF212D310020FFF737FF002038
:10154000FFF718FF0020059000BF00BF04907D202A
:10155000800103900020AC490880AC490860FFF787
:10156000A3FD00BF09210020FFF742F90028F9D1AF
:10157000FFF79EFA05900598002803D00020FFF79A
:1015800097FA05900598002802D1FFF7C1F903E00A
:10159000059800B2FEF7AFFE02210120FFF728F9FF
:1015A000002816D1FFF792FD002802D00020FFF797
:1015B0000FFA0DE0FFF707FE7D21C9000020FFF7BD
:1015C00081FEFFF7F9FD7D21C9000020FFF77AFEBB
:1015D000F0E70020FFF7FCF9FFF778FD012807D0BE
:1015E0000120FFF7F5F90120FFF762FAFFF75CFD34
:1015F0000020FFF7CDFE0120FFF7CAFEFFE0844880
:101600000088844909888842F8DB002454E0A0005F
:1016100081490958601C80007F4A1058814209D2D4
:10162000601C800011460858A1005158401AA100C2
:1016300050500DE0A000784908580021C943091A0C
:10164000601C8000744A10580818401CA1005050BB
:10165000A00072490958601C8000704A10588142ED
:1016600009D2601C800011460858A1005158401A48
:10167000A10050500DE0A000684908580021C9435E
:10168000091A601C8000654A10580818401CA10007
:101690005050A100614A5058FEF726FE0746A100AF
:1016A0005D4A5058FEF720FE39460290FEF7DEFDF7
:1016B000A1005B4A5050641C5A4800884000A04278
:1016C000A5DC0025002600271CE0002600240EE0F3
:1016D000A200554B99583A199200514B9858FEF771
:1016E00088FD31460290FEF72BFD0646641C4D48EE
:1016F00000888442ECDB31462846FEF7EDFE00D23E
:1017000035467F1C474800888742DEDB4748056036
:101710003E480168039881420BD24448016804980E
:10172000FEF70EFD049038480088401C36490880BA
:1017300061E035480088FEF7D7FD07463946049832
:10174000FEF794FD3A490860002455222046641CA7
:1017500038490A54AA222046641C0A540022204612
:10176000641C0A542046641C0A5412222046641C3D
:101770000A5400222046641C0A5404222046641C99
:101780000A5411222046641C0A54002006E02A490B
:101790000B5C2146641C274A5354401C0C28F6DB82
:1017A000234802782046641C22490A542048427883
:1017B0002046641C0A541E4882782046641C0A5441
:1017C0001B48C2782046641C0A5401210846FFF7D2
:1017D0000FF8002806D1A11C1648FFF7FBFCFFF705
:1017E000EBFC01E0FFF7EFFC0020074908800490C4
:1017F0000649086000BF00200549088000BFFEE6DA
:10180000400000100000E43F36000010000000100F
:101810003400001026000010EC000010F001001051
:10182000F402001028000010801800002C000010A6
:1018300030000010C0000010E00000100146002938
:1018400006D1074A506802221043054A506005E05D
:10185000044A506802221043024A50607047000058
:1018600000C000400000014010B5FEF701FF10BDB0
:101870000000005000000150000002500000035022
:1018800000000000ACC5473E07EFC33ED6390E3F0F
:10189000F704353F38DB543F66836C3FBA147B3F17
:1018A0000000803FBA147B3F66836C3F38DB543FB7
:1018B000F704353FD6390E3F07EFC33EACC5473E70
:1018C00000000000ACC547BE07EFC3BED6390EBF4F
:1018D000F70435BF38DB54BF66836CBFBA147BBFD7
:1018E000000080BFBA147BBF66836CBF38DB54BF77
:1018F000F70435BFD6390EBF07EFC3BEACC547BE30
:1019000000002110422063308440A550C660E7707B
:10191000088129914AA16BB18CC1ADD1CEE1EFF123
:1019200044190000000000105C000000921200004A
:10193000A01900005C0000109C050000A01200002F
:1019400071F9FFFF0000000000000000000000002F
:101950000000000000000000000000000000000087
:101960000100000000000000400000002000000016
:101970000000000000000000000000000000000067
:1019800000000000006CDC0200000000000000000D
:101990000000000000000000000000000000000047
:04000005000000C136
:00000001FF
